:020000040800F2
:10000000FF1F0020B91A00089D0100089F01000889
:1000100000000000000000000000000000000000E0
:10002000000000000000000000000000A101000826
:100030000000000000000000A3010008A501000866
:10004000091B000800000000091B0008091B00082C
:10005000091B0008091B0008091B0008091B0008F0
:1000600000000000091B0008091B0008091B00080C
:10007000091B0008091B0008091B000800000000FC
:10008000091B00080000000000000000091B000818
:1000900000000000091B0008091B0008091B0008DC
:1000A00000000000091B000800000000091B0008F8
:1000B0000000000000000000000000000000000040
:1000C00010B5064C2378002B07D1054B002B02D02E
:1000D000044800E000BF0123237010BD4804002045
:1000E00000000000101B000808B5084B002B03D0CF
:1000F0000748084900E000BF07480368002B03D009
:10010000064B002B00D0984708BDC04600000000F9
:10011000101B00084C0400204404002000000000D4
:10012000164B002B00D1144B9D46402292029A1A86
:10013000924600218B460F461348144A121A01F0CA
:1001400035FB0F4B002B00D098470E4B002B00D0F7
:1001500098470020002104000D000D48002802D01F
:100160000C4801F009FC01F0FDFA2000290001F023
:1001700083FC01F0E7FAC046000008000000000020
:100180000000000000000000480400208804002057
:100190007919000889190008704770477047FEE711
:1001A0007047704708B500F099F808BD114B01225F
:1001B00019681143196058680F490140596018685F
:1001C0000E490140196018680D49014019605868CE
:1001D0000C4901405960D96A0F208143D962186BDC
:1001E000094901401963596B9143002259639A6090
:1001F0007047C046001002400CB8FF08FFFFF6FE33
:10020000FFFFFBFFFFFFC0FF2CFEFFFF70B5144D8B
:100210000C236A68134C1340042B01D0082B02D026
:10022000114B236012E06E686B68B602360F02361F
:10023000E96ADA0307D50F23194001310A4801F0B2
:1002400025FA464301E0094B5E4326606B6822684D
:100250001B061B0FE3181B79DA40226070BDC046F5
:10026000001002400400002000127A0000093D0046
:100270007047704710B5074B0122524200241A61A3
:100280001C61DA60DC609A629C62FFF786FF201CCA
:1002900010BDC0460010024010B5041C00F02AFE3C
:1002A000FA21890001F0F2F900F0C6F8012040427D
:1002B000211C002200F06EF8002010BD08B5064B8E
:1002C00010211A6803200A431A60FFF7E5FFFFF7C1
:1002D00063FF002008BDC04600200240024B1A68A0
:1002E00001321A607047C04664040020014B186850
:1002F0007047C04664040020024B02211A688A43FA
:100300001A60704710E000E0024B02211A680A43AD
:100310001A60704710E000E013B50190FFF7E6FFA8
:10032000041CFFF7E3FF019B001B9842F9D313BDA8
:100330000048704700010001014B1868000C70472D
:1003400000580140024B18680005000D7047C04678
:1003500000580140024B02215A680A435A60704714
:1003600000580140024B02215A688A435A60704784
:1003700000580140024B04215A680A435A607047F2
:1003800000580140024B04215A688A435A60704762
:100390000058014070B58901002815DAC0B20F235A
:1003A0000340083B124A9B089B009B180322104005
:1003B000FF24C200DD69201C904085430C4094401E
:1003C0002A1C2243DA6112E082080A4B03249200BD
:1003D000D2182040C023A0409B00FF24D558261CE3
:1003E0008640B5430C408440281C2043D05070BD4B
:1003F00000ED00E000E100E01F23184001238340EE
:10040000181C014B1860704700E100E01F231840E2
:1004100001238340181C014BD867704704E100E0BA
:10042000BFF34F8F024A034BDA60BFF34F8FFEE7F3
:100430000400FA0500ED00E0094B421E01209A423B
:100440000DD8084BC0215A60074A0906106A0002FD
:10045000000A014311620020072298601A60704769
:10046000FFFFFF0010E000E000ED00E0002809DAE7
:10047000C0B20F230340083B9B08084A9B009B180F
:100480005B6804E08208C032054B9200D358032217
:1004900010409040C340D8B28009704718ED00E08A
:1004A00000E100E01F23184001238340181C014B8A
:1004B00058607047FCE100E01F22054B104001220C
:1004C0005B688240101C1840431E98417047C0462C
:1004D000FCE100E01F23184001238340181C024A5E
:1004E000C0235B00D050704700E100E0054B1A6864
:1004F000042802D11043186002E004218A431A60E4
:100500007047C04610E000E0704708B5FFF7FCFFF9
:1005100008BDC046074BDA68D10602D5064A02215B
:100520005176DB685A0704D5034B01215A7E0A43F2
:100530005A7670470020024068040020F0B5134C42
:100540000225267E012E1FD001252576104DA026DE
:100550002F6976013E432E61A1600326226163610B
:10056000012802D00426022802D12670606002E031
:100570000520207066603423EB602B69012092B265
:1005800003432B610A800025281CF0BD680400206D
:100590000020024070477047054B01201A69110680
:1005A00004D5044A00205A60034A5A607047C04686
:1005B0000020024023016745AB89EFCD034B80212A
:1005C0001A6900200A431A617047C04600200240A1
:1005D000064B8022196992000A400120002A04D1AA
:1005E0000349101C9960034999607047002002403C
:1005F00023016745AB89EFCD034B044A19690020FD
:100600000A401A617047C04600200240FFFDFFFF0C
:10061000014B587EC0B2704768040020064B34225C
:10062000DA601A6902210A431A6158611A69402185
:100630000A431A617047C04600200240F8B53B4D9E
:1006400007222B693A4C93432B61EA6820231A4214
:1006500050D0EB602378012B15D16368013B6360B8
:10066000A068FFF797FF6368002B08D0A36880227B
:10067000D2009B18A360A068FFF7D0FF3AE00122E8
:100680005242A26035E02378022B03D10020FFF70D
:1006900081FF2DE06368013B63606368002B16D027
:1006A000A3680233A360A668206961690F04020C85
:1006B0000B0C3A4322616361226963693423EB6066
:1006C0002B69012192B20B432B61328012E0237817
:1006D000032B01D1A06806E02378A068042B01D188
:1006E000023800E00638FFF755FF01235B42A360A4
:1006F00000232370EE6814231E409E420BD1FFF7A7
:1007000009FFA068FFF747FF084BDE6001235B424B
:10071000A360002323702378DBB2002B04D1296966
:10072000044A0A402A612376F8BDC04600200240F0
:1007300068040020FFEBFFFF38B5041CFFF7D6FD6F
:10074000051C0D4BDA68D1070BD5611CF9D0002CC4
:1007500001D103200FE0FFF7C9FD401BA042F0D9F3
:10076000F7E7D8681022104002D1DB685A0702D59B
:10077000FFF7D0FE012038BD00200240F0B585B063
:10078000029203931C4B01911A7E041C0220012A41
:1007900030D0012219481A76FFF7CEFF002826D163
:1007A000012C02D00426022C00D1261C0025029820
:1007B00003992A0100F0BAFF114C3423E360236946
:1007C0000127019A3B4323616B009B1880B218807C
:1007D0000A48FFF7B1FFE26820231A4200D0E36025
:1007E00023690135BB432361EBB2B342DFD3024B34
:1007F00000221A7605B0F0BD6804002050C3000046
:100800000020024008B5054B8022196992010A4375
:100810001A610348FFF790FF08BDC0460020024060
:1008200050C30000054B3422DA601A6904210A43E0
:100830001A611A6940210A431A6170470020024078
:10084000F8B5254B061C1A7E0F1C0220012A42D047
:10085000214A012321481376FFF76EFF051E36D18A
:100860003368012B10D1FFF7DDFF1C48FFF764FF51
:100870001B4B2022D968051C114200D0DA601A698E
:1008800004218A431A6122E001235B423B607468C1
:10089000B268930272689B189C4218D2201CFFF722
:1008A000BDFE0E48FFF748FF0D4B2022D9681142CC
:1008B00000D0DA601A6902218A431A61002802D046
:1008C0003C60051C03E08022D200A418E0E7024A45
:1008D00000231376281CF8BD6804002050C30000D4
:1008E0000020024070B50F4B0222197E012916D05C
:1008F0000D4CA02526696D0101213543197625612E
:1009000004688C4203D11A70FFF78CFF06E08268FE
:10091000406819705A609860FFF780FE0022101C32
:1009200070BDC0466804002000200240F8B5041CD9
:1009300023680120034231D06368A6683D4D83429D
:1009400013D13D48FFF7F8FE3423EB60002825D192
:100950002B691021FF220B43B2432B61FF2A19D0D0
:10096000364B19890A401A8111E03348FFF7E4FE3B
:100970003423EB60002811D12B6910221343F6B207
:100980002B61FF2E06D02D4B1A8916431E812A4853
:10099000FFF7D2FE2B69102293432B6123689B073C
:1009A00014D52548277BFFF7C7FE224D3423EB6083
:1009B00000280BD12B69102633432B611F4B1E4897
:1009C0001F80FFF7B9FE2B69B3432B6123685B07D8
:1009D00016D51948677BFFF7AFFE164D3423EB6041
:1009E00000280DD12B69102633432B6188231F4328
:1009F000124B11485F80FFF79FFE2B69B3432B61B9
:100A000023681B0714D50C482669277DFFF794FE41
:100A1000084C3423E36000280AD1236910252B43B6
:100A2000236105483780FFF787FE2369AB432361C5
:100A3000F8BDC0460020024050C3000000F8FF1F70
:100A400007230360054B1A6A8260DA699207D20FA6
:100A50000273DB691B0A43737047C04600200240E3
:100A600070B586B06846FFF7EBFF6A46137BBB257F
:100A7000002B00D1AA251048FFF75EFE0F4C34234F
:100A8000E360002816D123692026334323612369BC
:100A90004022134323610848FFF74EFE2369B34306
:100AA0002361002806D10223009368466B461D731C
:100AB000FFF73CFF06B070BD50C3000000200240AD
:100AC000F0B50B6885B0039300230122039C9A4084
:100AD00014400294944200D099E04A681024151CF6
:100AE000A5430195022D0FD1DC08A40007250419A8
:100AF0001D40AD00266A0F27AF40BE430F69AF40CF
:100B00003D1C371C2F43276204680327A4463D1C65
:100B10005C00A540ED43664617402E40A740374392
:100B2000019E0760013E012E0ED88768CE682F40D7
:100B3000A6403E4386608788029EB743D606F60FDE
:100B40009E403E43B6B28680C6688F683540A74057
:100B50003D43C560D4005AD5304C0126A5693543C4
:100B6000A5612F4D9C08A4006419A76803251D40AA
:100B7000AD0000970F27AF400195009DBD43902722
:100B8000AC46FF05B84211D0264FB84210D0264ED1
:100B9000B0420FD0254EB0420ED0254DA8420DD008
:100BA000244E85196E1EB541053508E0002506E086
:100BB000351C04E0022502E0032500E00425019F26
:100BC0006646BD403543A560029F1B4CFD43266829
:100BD000D70301D42E4001E0029F3E4326606668A1
:100BE000970301D42E4001E0029F3E436660A66851
:100BF000D70201D42E4001E0029F3E43A660E66882
:100C0000970201D4354001E0029D3543E560013390
:100C1000102B00D059E705B0F0BDC04600100240CF
:100C2000000001400004004800080048000C004893
:100C30000010004800ECFFB700040140F7B50023A6
:100C400000910122009E9A401640964236D103251B
:100C50005A00291C04689140CA43DF081440BF00B1
:100C60000460C7193C6A0F21019407241C40A400AA
:100C7000A140019CF6438C433C6287681D401740AD
:100C800087608788AD0037408780C7680F243A4067
:100C9000C2600C4F9A089200D2199768AC40A743E3
:100CA0009760094A146834401460546834405460B2
:100CB000946834409460D4682640D6600133102B89
:100CC000BFD1F7BD0000014000040140008A084088
:100CD000431E9841C0B27047002A01D0018300E052
:100CE00041837047838A594081827047802382B054
:100CF0005B020193019B0B430193019BC361C161A3
:100D0000019BC361C3690193C36901201B0C984314
:100D100002B07047704708B5034B5A69024202D0CF
:100D20005861FFF7F7FF08BD00040140054B802222
:100D3000196952050A431A611969034A0A401A617E
:100D40007047C04600100240FFFFFFEF034B8022B8
:100D5000196852000A431A607047C046007000408C
:100D6000024B034A19680A401A607047007000403D
:100D7000FFFEFFFF044BC1B280205A68400088404C
:100D8000104358607047C04600700040044BC1B229
:100D900080205A684000884082435A607047C046AD
:100DA00000700040094B10B51A680324A243104399
:100DB0001860074B04201A6982431A61012901D186
:100DC00030BF02E040BF20BF20BF10BD0070004018
:100DD00000ED00E00B4B10B51A680324A24310434A
:100DE0001860094B04201A6902431A61012901D1D4
:100DF00030BF02E040BF20BF20BF1A6904218A43F0
:100E00001A6110BD0070004000ED00E0054B0221AA
:100E10001A680A431A60044B04211A690A431A61CA
:100E200030BF70470070004000ED00E00B4B8121A7
:100E30001A680A431A605968094A0A405A601968D0
:100E4000084A0A401A601968074A0A401A600022D4
:100E50005A60DA621A639A607047C0460010024016
:100E60000CF8FFF0FFFFF6FEFFFFFBFF01207047CD
:100E70000120704770B5104C161C802362699B02DC
:100E800013436361802386B05B00019302230293C6
:100E90009020032304930D1C0023C00501A9039394
:100EA0000593FFF70DFE6268044B13401E43354364
:100EB000656006B070BDC04600100240FFFFFF80B5
:100EC000034B8022196812030A431A607047C04618
:100ED00000100240024B034A19680A401A6070472A
:100EE00000100240FFFFF7FF014B18687047C04633
:100EF0000400002008B500F01BFB054B054A5B68A9
:100F00001B061B0FD35CD840034B186008BDC046BE
:100F1000001002402C1B00080400002008B5FFF759
:100F2000E9FF044B044A5B685B055B0FD35CD84068
:100F300008BDC046001002402C1B00080F230360B0
:100F4000274B1A68510301D5052205E01968802254
:100F500052020A4000D0012242601A6801210A4070
:100F600001D0C16000E0C2601A681206D20E0261B0
:100F70001A6A510701D5052206E0194A0121126AB1
:100F80000A4001D0816000E082605A6A01210A4073
:100F900001D0016200E002621A68D10101D502228B
:100FA00000E0012242625968802252020A408262B5
:100FB0005968F02292030A400263D96A0F220A405C
:100FC000C2625A6B01210A4001D0416100E04261D6
:100FD0005B6B1B06DB0E83610023C3617047C04659
:100FE00000100240072303600A4B10B55C6803221F
:100FF000224042605C68F022224082605A68E0230E
:10100000DB001340C360044B1A68012313400B60DC
:1010100010BDC04600100240002002407047054B42
:1010200010B59B688024234203D0FFF7F7FF024BE3
:101030001C7010BD001002400A100240F8B5041CDC
:101040000068C00703D42168890745D489E0B04D02
:101050000C236A681A40042A06D06A681340082BD9
:101060000AD16B68DA0307D52B689803EBD5616862
:10107000012900D084E1E6E7A64E00233370FFF794
:1010800035F9071C2B689A0307D5FFF72FF9A24BF8
:10109000C01B9842F6D9032073E12379337063684B
:1010A000012B0CD1FFF722F9061C2B689803CAD438
:1010B000FFF71CF9984B801B9842F6D9EBE7FFF736
:1010C00015F9061C2B689903BDD5FFF70FF9924B54
:1010D000801B9842F6D9DEE78D4D0C236A681A42D0
:1010E00006D06A681340082B11D16B68DA030ED45E
:1010F0002B68980703D5E168012900D040E12B68EF
:101100002069F821C2008B4313432B6029E0E1687A
:1011100001232A68002916D013432B60FFF7E6F855
:10112000061C2A687A4B900705D4FFF7DFF8801B6E
:101130006428F6D9AFE720691A68C100F820824315
:101140000A431A600DE09A432A60FFF7CFF8061CA5
:101150002B68990705D5FFF7C9F8801B6428F7D9D4
:1011600099E72268120703D423685B074DD521E075
:10117000674D206A01236A6A00280DD013436B6211
:10118000FFF7B4F8061C6B6A9907EDD4FFF7AEF8C9
:10119000801B6428F7D97EE79A436A62FFF7A6F8B6
:1011A000061C6B6A9A07DFD5FFF7A0F8801B64283E
:1011B000F7D970E7564D8023EA695B051343574E14
:1011C000EB61326880235B0013433360FFF78EF8D6
:1011D000071C3368D8051CD52B6A052293432B6264
:1011E000FFF784F8061C2B6A494A990717D4116A3D
:1011F000A3680520814319431162012B1DD1FFF71C
:1012000075F8061C2B6A9A0710D52368DB0621D4D3
:1012100060E0FFF76BF8C01B6428DAD93BE7FFF703
:1012200065F83D4B801B9842DDD934E7FFF75EF847
:10123000394B801B9842E5D92DE7FFF757F8061C7C
:101240002B6A9807E1D5FFF751F8334B801B984282
:10125000F6D920E762692E4D0423012A1AD1696B61
:101260000B436B636B6B1A436A63FFF73FF8061C13
:101270006A6B274B910705D4FFF738F8801B642869
:10128000F6D908E7A0695A6BC100F82082430A43E7
:101290005A631FE005320AD16A6B9A436A63A169F7
:1012A0006B6BCA00F8218B4313436B6312E06A6BCC
:1012B00013436B636B6B012293436B63FFF716F869
:1012C000061C6B6B9A0705D5FFF710F8801B642886
:1012D000F7D9E0E6626A002A01D1002051E00C4D06
:1012E0000C2369680B40082B4AD00D4B022A38D1D9
:1012F0002A6813402B60FEF7F9FF061C2A68044B8E
:1013000090010FD5FEF7F2FF801B6428F6D9C2E6E4
:1013100000100240021002408813000000700040DC
:10132000FFFFFFFEDA6A0F218A43E16A0A43DA62AD
:10133000226BA16A58681143124A02400A435A605C
:101340001968802252040A431A60FEF7CFFF041C7A
:101350002B689A01C1D4FEF7C9FF001B6428F7D996
:1013600099E62A6813402B60FEF7C0FF041C2B6827
:101370009801B2D5FEF7BAFF001B6428F7D98AE6B8
:101380000120F8BDFFFFC2FF654BF7B50E1C1968C1
:101390000122041C11401F1C8E4262D9196891431E
:1013A000314319601B681A40B24201D00120B6E0F7
:1013B0000368980706D55B4AF02051688143A0680E
:1013C00001435160D9070BD42268520700D4A2E030
:1013D000544B554A59680A40E1680A435A609AE0FA
:1013E000504D63682A68012B02D1900307D4DDE7D2
:1013F000022B02D1910102D4D8E79007D6D56A68B2
:1014000003218A4313436B60FEF770FF6368061C79
:10141000012B0CD16A680C231340042BD4D0FEF7A7
:1014200065FF424B801B9842F4D9032077E0022BE2
:101430000AD06A680C231A420CD1C5E7FEF756FFA2
:101440003A4B801B9842F0D86A680C231340082B53
:10145000F4D1B9E7FEF74AFF344B801B9842E8D934
:10146000E3E70368990706D52E4AF02051688143C7
:10147000A06801435160D90709D43A6801239A430F
:1014800032433A603A681340B3428FD19CE7254D0E
:1014900063682A68012B02D1900308D486E7022BE7
:1014A00002D1910103D481E7900700D47EE76A68F6
:1014B00003218A4313436B60FEF718FF63680190B2
:1014C000012B0CD16A680C231340042BD5D0FEF7F6
:1014D0000DFF0199154B401A9842F3D9A5E7022B4D
:1014E0000BD06A680C231A420DD1C6E7FEF7FEFE48
:1014F000019A0E4B801A984297D86A680C231340C1
:10150000082BF3D1B9E7FEF7F1FE019BC01A074B98
:101510009842E6D989E70320FEF7BEFE0020FEBD13
:101520000020024000100240FFF8FFFF8813000077
:101530000D490C224B6810B51A40082A11D10B4AEC
:101540009802000F145CC86A0F2101405218117CE8
:10155000DA0303D5064800F099F800E00548604337
:1015600000E0034810BDC046001002403C1B0008CC
:1015700000127A0000093D00F8B5041C0068C003A1
:1015800045D52D4D8023EA695B0513432B4EEB6156
:10159000326880235B0013433360FEF7A7FE071C0D
:1015A0003368DA0506D4FEF7A1FEC01B6428F7D91C
:1015B000032040E0286A6268C021504089001E4B29
:1015C00008420CD0186A1E491E6A01408020400261
:1015D000304318621E6A1B4830401862196280232B
:1015E0005B009A4206D02A6A154B60681340034399
:1015F0002B620CE0FEF77AFE061C2B6A9A07F2D4E7
:10160000FEF774FE104B801B9842F6D9D0E7236892
:10161000D80706D5084A0320116B8143A06801430F
:10162000116300209A0606D5034B10211A6B8A43DA
:10163000E1680A431A63F8BD0010024000700040E0
:10164000FFFCFFFFFFFFFEFF88130000084BC022D6
:101650000360084B9200196A0A404260196B03222A
:101660000A4082601A6B10231340C3607047C04663
:101670002100010000100240781B0008000000203B
:10168000440400204804002088040020002934D0AD
:101690000123002210B488422CD301242407A14244
:1016A00004D2814202D209011B01F8E7E400A14201
:1016B00004D2814202D249005B00F8E7884201D39C
:1016C000401A1A434C08A04202D3001B5C08224374
:1016D0008C08A04202D3001B9C082243CC08A042E5
:1016E00002D3001BDC082243002803D01B0901D0D1
:1016F0000909E3E7101C10BC7047002801D0002046
:10170000C04307B4024802A14018029003BDC0467E
:10171000190000000029F0D003B5FFF7B9FF0EBC97
:101720004243891A1847C0467047C046D0400B1C38
:10173000D1409C46203AD3401843524263469340DE
:101740001843704710B50021041C00F089F8044BC1
:101750001868C36B002B00D09847201C00F0D6F906
:10176000601B000870B50D4E0D4D0024AD1BAD1073
:1017700005D0A300F35801349847A542F9D100F0F1
:10178000C9F9084E084D0024AD1BAD1005D0A300CB
:10179000F35801349847A542F9D170BD6C1B00087D
:1017A0006C1B00086C1B0008741B0008F0B5830755
:1017B00046D0541E002A42D0CEB2031C032503E0BB
:1017C000621E002C3BD0141C01335A1E16702B4293
:1017D000F6D1032C2BD9FF250D402A0215432A04EC
:1017E00015430F2C15D9271C103F3F091E1C3A0129
:1017F0001036B6181A1C156055609560D560103209
:10180000B242F8D101373F010F22DB191440032CFB
:101810000DD9271FBF08BA001E1DB6181A1C20C2FA
:10182000B242FCD10137BF000322DB191440002C67
:1018300005D01C19C9B219700133A342FBD1F0BD08
:10184000141C031CC5E7C04608B5034B002B02D08F
:10185000024800F091F808BD000000008919000856
:10186000F0B55F4656464D464446F0B4404B85B011
:101870001B68029001934933FF3303930F1C0198B7
:10188000A421490042589046002A4AD00398814634
:1018900041464E68741E41D44546A3008835ED1874
:1018A000C620C42301365B004000B6009B4682463A
:1018B0004644C344C24408E02B1C80331B68BB422F
:1018C00005D0043D043E013C28D3002FF4D141460D
:1018D0004A683368013AA2422CD000223260002BC1
:1018E000EFD040465946406801220968A240009066
:1018F00011421DD05046006810421DD1029829683F
:10190000984741464968009A9142B8D14A461268C0
:101910004245B4D1043D043E013CD6D2154A002ACA
:101920000DD105B03CBC90469946A246AB46F0BDF1
:101930009847E6E74C60D2E728689847E1E74346D6
:101940005B684046002B0DD10368002B0ED0494642
:101950000B6000E000BF4B461A68904641460029E4
:1019600096D1DEE70368C1469846F7E70023FAE719
:10197000601B00080000000008B5011C00220020C8
:10198000002300F019F808BD38B5094B094DED1AD0
:10199000AD1009D0013DAC00E41800E0013D236822
:1019A0009847043C002DF9D100F0BAF838BDC04684
:1019B000741B0008781B0008F0B54F464646C0B4BB
:1019C00098462B4BA4251B686D005C5983B0061C00
:1019D0000F1C91460193002C44D065681F2D1ADD21
:1019E000244B002B02D1012040421CE0C8204000C3
:1019F00000E000BF041EF6D000254560A423019836
:101A00005B00C05801992060CC50C4235B00E550B6
:101A1000C6235B00E550002E0AD16B1C0235AD00D9
:101A2000636000202F5103B00CBC90469946F0BD76
:101A3000AB00E318882248469850C4204000221882
:101A400010680121A94008431060842252004046DA
:101A50009850022EE1D1C6225200A3181868014303
:101A60001960DAE71C1C4D34FF345C51B5E7C04601
:101A7000601B00080000000010B592B0FEF71EFCCD
:101A8000002305930F931093802302245B0305A882
:101A90000E941193FFF7D2FA002800D0FEE7072337
:101AA00003900490012101A801930294FFF76CFCBC
:101AB000002800D0FEE7FEE70D488546002103E040
:101AC0000C4B5B58435004310B480C4B42189A4264
:101AD000F6D30B4A02E0002313600432094B9A420A
:101AE000F9D3FEF763FBFFF73DFEFFF7C5FFFEE707
:101AF000FF1F0020781B0008000000204404002085
:101B00004804002088040020FEE70000FEE7C046ED
:101B100000000000F8B5C046F8BC08BC9E467047FF
:0C1B2000F8B5C046F8BC08BC9E467047F3
:101B2C000000000001020304010203040607080977
:101B3C0002030405060708090A0B0C0D0E0F101002
:101B4C000102030405060708090A0B0C0D0E0F1001
:081B5C00430000001800002006
:081B6400BCE5FF7F0100000059
:081B6C0049180008E900000817
:041B7400C1000008A4
:101B78000000000000127A000000000000000000D1
:101B880001020304060708090000000004030020FE
:101B98006C030020D40300200000000000000000B7
:101BA800000000000000000000000000000000002D
:101BB8000000000000000000000000005C1B00089E
:101BC800000000000000000000000000000000000D
:101BD80000000000000000000000000000000000FD
:101BE80000000000000000000000000000000000ED
:101BF80000000000000000000000000000000000DD
:101C080000000000000000000000000000000000CC
:101C180000000000000000000000000000000000BC
:101C280000000000000000000000000000000000AC
:101C380001000000000000000E33CDAB34126DE649
:101C4800ECDE05000B0000000000000000000000B2
:101C5800000000000000000000000000000000007C
:101C6800000000000000000000000000000000006C
:101C7800000000000000000000000000000000005C
:101C8800000000000000000000000000000000004C
:041FB80018000020ED
:041FBC000000000021
:0400000508001AB91C
:00000001FF
