:1000000012C02AC029C028C027C026C09EC024C054
:1000100023C022C021C020C01FC01EC01DC01CC0E4
:100020001BC01AC019C011241FBECFEDCDBF10E0F8
:10003000A0E6B0E0E0E3F2E002C005900D92A23746
:10004000B107D9F710E0A2E7B0E001C01D92A937CF
:10005000B107E1F7B7D0EAC0D3CFD09A87B3806CAD
:1000600087BB8DB18A618DB908958FB9769A8DB1AC
:100070008B618DB9769902C0689AFCCF8FB10895D3
:100080001F93CF93DF93EC0115E08991EEDF1150C0
:10009000E1F7D89AD898DF91CF911F910895889A67
:1000A00090980895809175008830C0F5809178000F
:1000B000E09175008730F0F440917800F0E0E05A6C
:1000C000FF4F808190E027E030E0241B310902C01F
:1000D000959587952A95E2F780FF04C081E080938B
:1000E000740002C010927400809178008F5F80933A
:1000F00078000895F0E0E05AFF4F808180FF04C04F
:1001000081E08093740002C0109274001092780015
:10011000809175008F5F80937500089581E08093D2
:1001200077000895109273001092720012BE89B782
:10013000826089BF83B7826083BF089583B78D7F54
:1001400083BF89B78D7F89BF08951F920F920FB625
:100150000F9211242F933F934F935F936F937F934D
:100160008F939F93AF93BF93EF93FF938091720010
:100170009091730081379B4050F480917200909170
:100180007300019690937300809372000AC01092DE
:10019000730010927200809176008F5F80937600DA
:1001A00081DFFF91EF91BF91AF919F918F917F91EF
:1001B0006F915F914F913F912F910F900FBE0F90D4
:1001C0001F9018954ADF6BDF109274008DE690E067
:1001D00057DF789410927700109276001092780092
:1001E0001092750010927400A9DF909A9BDF81E055
:1001F00090917400891781F080917400811103C07F
:100200008DE690E006C080917400813019F488E694
:1002100090E036DF8091740090917700992341F34C
:100220009098809176008436A8F6FBCFF894FFCFA3
:100230001D45D45DDDC75DC47612232800C3E223CB
:02024000280094
:00000001FF
